{
  "contractName": "CarResaleValue",
  "abi": [
    {
      "inputs": [],
      "stateMutability": "nonpayable",
      "type": "constructor"
    },
    {
      "anonymous": false,
      "inputs": [
        {
          "indexed": true,
          "internalType": "address",
          "name": "owner",
          "type": "address"
        },
        {
          "indexed": true,
          "internalType": "address",
          "name": "approved",
          "type": "address"
        },
        {
          "indexed": true,
          "internalType": "uint256",
          "name": "tokenId",
          "type": "uint256"
        }
      ],
      "name": "Approval",
      "type": "event"
    },
    {
      "anonymous": false,
      "inputs": [
        {
          "indexed": true,
          "internalType": "address",
          "name": "owner",
          "type": "address"
        },
        {
          "indexed": true,
          "internalType": "address",
          "name": "operator",
          "type": "address"
        },
        {
          "indexed": false,
          "internalType": "bool",
          "name": "approved",
          "type": "bool"
        }
      ],
      "name": "ApprovalForAll",
      "type": "event"
    },
    {
      "anonymous": false,
      "inputs": [
        {
          "indexed": true,
          "internalType": "uint256",
          "name": "tokenId",
          "type": "uint256"
        },
        {
          "indexed": true,
          "internalType": "address",
          "name": "seller",
          "type": "address"
        },
        {
          "indexed": true,
          "internalType": "address",
          "name": "buyer",
          "type": "address"
        },
        {
          "indexed": false,
          "internalType": "uint256",
          "name": "salePrice",
          "type": "uint256"
        }
      ],
      "name": "CarSold",
      "type": "event"
    },
    {
      "anonymous": false,
      "inputs": [
        {
          "indexed": true,
          "internalType": "uint256",
          "name": "tokenId",
          "type": "uint256"
        },
        {
          "indexed": false,
          "internalType": "uint256",
          "name": "expirationDate",
          "type": "uint256"
        }
      ],
      "name": "ExpirationDateSet",
      "type": "event"
    },
    {
      "anonymous": false,
      "inputs": [
        {
          "indexed": true,
          "internalType": "address",
          "name": "from",
          "type": "address"
        },
        {
          "indexed": true,
          "internalType": "address",
          "name": "to",
          "type": "address"
        },
        {
          "indexed": true,
          "internalType": "uint256",
          "name": "tokenId",
          "type": "uint256"
        }
      ],
      "name": "Transfer",
      "type": "event"
    },
    {
      "inputs": [
        {
          "internalType": "address",
          "name": "to",
          "type": "address"
        },
        {
          "internalType": "uint256",
          "name": "tokenId",
          "type": "uint256"
        }
      ],
      "name": "approve",
      "outputs": [],
      "stateMutability": "nonpayable",
      "type": "function"
    },
    {
      "inputs": [
        {
          "internalType": "address",
          "name": "owner",
          "type": "address"
        }
      ],
      "name": "balanceOf",
      "outputs": [
        {
          "internalType": "uint256",
          "name": "",
          "type": "uint256"
        }
      ],
      "stateMutability": "view",
      "type": "function"
    },
    {
      "inputs": [
        {
          "internalType": "uint256",
          "name": "tokenId",
          "type": "uint256"
        }
      ],
      "name": "getApproved",
      "outputs": [
        {
          "internalType": "address",
          "name": "",
          "type": "address"
        }
      ],
      "stateMutability": "view",
      "type": "function"
    },
    {
      "inputs": [
        {
          "internalType": "address",
          "name": "owner",
          "type": "address"
        },
        {
          "internalType": "address",
          "name": "operator",
          "type": "address"
        }
      ],
      "name": "isApprovedForAll",
      "outputs": [
        {
          "internalType": "bool",
          "name": "",
          "type": "bool"
        }
      ],
      "stateMutability": "view",
      "type": "function"
    },
    {
      "inputs": [],
      "name": "name",
      "outputs": [
        {
          "internalType": "string",
          "name": "",
          "type": "string"
        }
      ],
      "stateMutability": "view",
      "type": "function"
    },
    {
      "inputs": [
        {
          "internalType": "uint256",
          "name": "tokenId",
          "type": "uint256"
        }
      ],
      "name": "ownerOf",
      "outputs": [
        {
          "internalType": "address",
          "name": "",
          "type": "address"
        }
      ],
      "stateMutability": "view",
      "type": "function"
    },
    {
      "inputs": [
        {
          "internalType": "address",
          "name": "from",
          "type": "address"
        },
        {
          "internalType": "address",
          "name": "to",
          "type": "address"
        },
        {
          "internalType": "uint256",
          "name": "tokenId",
          "type": "uint256"
        }
      ],
      "name": "safeTransferFrom",
      "outputs": [],
      "stateMutability": "nonpayable",
      "type": "function"
    },
    {
      "inputs": [
        {
          "internalType": "address",
          "name": "from",
          "type": "address"
        },
        {
          "internalType": "address",
          "name": "to",
          "type": "address"
        },
        {
          "internalType": "uint256",
          "name": "tokenId",
          "type": "uint256"
        },
        {
          "internalType": "bytes",
          "name": "data",
          "type": "bytes"
        }
      ],
      "name": "safeTransferFrom",
      "outputs": [],
      "stateMutability": "nonpayable",
      "type": "function"
    },
    {
      "inputs": [
        {
          "internalType": "address",
          "name": "operator",
          "type": "address"
        },
        {
          "internalType": "bool",
          "name": "approved",
          "type": "bool"
        }
      ],
      "name": "setApprovalForAll",
      "outputs": [],
      "stateMutability": "nonpayable",
      "type": "function"
    },
    {
      "inputs": [
        {
          "internalType": "bytes4",
          "name": "interfaceId",
          "type": "bytes4"
        }
      ],
      "name": "supportsInterface",
      "outputs": [
        {
          "internalType": "bool",
          "name": "",
          "type": "bool"
        }
      ],
      "stateMutability": "view",
      "type": "function"
    },
    {
      "inputs": [],
      "name": "symbol",
      "outputs": [
        {
          "internalType": "string",
          "name": "",
          "type": "string"
        }
      ],
      "stateMutability": "view",
      "type": "function"
    },
    {
      "inputs": [
        {
          "internalType": "uint256",
          "name": "tokenId",
          "type": "uint256"
        }
      ],
      "name": "tokenURI",
      "outputs": [
        {
          "internalType": "string",
          "name": "",
          "type": "string"
        }
      ],
      "stateMutability": "view",
      "type": "function"
    },
    {
      "inputs": [
        {
          "internalType": "address",
          "name": "from",
          "type": "address"
        },
        {
          "internalType": "address",
          "name": "to",
          "type": "address"
        },
        {
          "internalType": "uint256",
          "name": "tokenId",
          "type": "uint256"
        }
      ],
      "name": "transferFrom",
      "outputs": [],
      "stateMutability": "nonpayable",
      "type": "function"
    },
    {
      "inputs": [
        {
          "internalType": "string",
          "name": "make",
          "type": "string"
        },
        {
          "internalType": "string",
          "name": "model",
          "type": "string"
        },
        {
          "internalType": "uint256",
          "name": "year",
          "type": "uint256"
        },
        {
          "internalType": "string",
          "name": "condition",
          "type": "string"
        },
        {
          "internalType": "uint256",
          "name": "resaleValue",
          "type": "uint256"
        },
        {
          "internalType": "address",
          "name": "owner",
          "type": "address"
        }
      ],
      "name": "createCarResaleValue",
      "outputs": [
        {
          "internalType": "uint256",
          "name": "",
          "type": "uint256"
        }
      ],
      "stateMutability": "nonpayable",
      "type": "function"
    },
    {
      "inputs": [
        {
          "internalType": "uint256",
          "name": "tokenId",
          "type": "uint256"
        }
      ],
      "name": "getCarDetails",
      "outputs": [
        {
          "components": [
            {
              "internalType": "string",
              "name": "make",
              "type": "string"
            },
            {
              "internalType": "string",
              "name": "model",
              "type": "string"
            },
            {
              "internalType": "uint256",
              "name": "year",
              "type": "uint256"
            },
            {
              "internalType": "string",
              "name": "condition",
              "type": "string"
            },
            {
              "internalType": "uint256",
              "name": "resaleValue",
              "type": "uint256"
            },
            {
              "internalType": "uint256",
              "name": "expirationDate",
              "type": "uint256"
            },
            {
              "internalType": "bool",
              "name": "sold",
              "type": "bool"
            }
          ],
          "internalType": "struct CarResaleValue.CarDetails",
          "name": "",
          "type": "tuple"
        }
      ],
      "stateMutability": "view",
      "type": "function"
    },
    {
      "inputs": [
        {
          "internalType": "uint256",
          "name": "tokenId",
          "type": "uint256"
        }
      ],
      "name": "purchaseCarResaleValue",
      "outputs": [],
      "stateMutability": "payable",
      "type": "function"
    },
    {
      "inputs": [
        {
          "internalType": "uint256",
          "name": "tokenId",
          "type": "uint256"
        },
        {
          "internalType": "string",
          "name": "make",
          "type": "string"
        },
        {
          "internalType": "string",
          "name": "model",
          "type": "string"
        },
        {
          "internalType": "uint256",
          "name": "year",
          "type": "uint256"
        },
        {
          "internalType": "string",
          "name": "condition",
          "type": "string"
        },
        {
          "internalType": "uint256",
          "name": "resaleValue",
          "type": "uint256"
        }
      ],
      "name": "editCarDetails",
      "outputs": [],
      "stateMutability": "nonpayable",
      "type": "function"
    },
    {
      "inputs": [
        {
          "internalType": "uint256",
          "name": "tokenId",
          "type": "uint256"
        },
        {
          "internalType": "uint256",
          "name": "expirationDate",
          "type": "uint256"
        }
      ],
      "name": "setExpirationDate",
      "outputs": [],
      "stateMutability": "nonpayable",
      "type": "function"
    },
    {
      "inputs": [
        {
          "internalType": "uint256",
          "name": "tokenId",
          "type": "uint256"
        }
      ],
      "name": "deleteCar",
      "outputs": [],
      "stateMutability": "nonpayable",
      "type": "function"
    },
    {
      "inputs": [],
      "name": "totalSupply",
      "outputs": [
        {
          "internalType": "uint256",
          "name": "",
          "type": "uint256"
        }
      ],
      "stateMutability": "view",
      "type": "function"
    },
    {
      "inputs": [
        {
          "internalType": "string",
          "name": "make",
          "type": "string"
        },
        {
          "internalType": "string",
          "name": "model",
          "type": "string"
        },
        {
          "internalType": "uint256",
          "name": "year",
          "type": "uint256"
        },
        {
          "internalType": "string",
          "name": "condition",
          "type": "string"
        }
      ],
      "name": "searchCar",
      "outputs": [
        {
          "components": [
            {
              "internalType": "string",
              "name": "make",
              "type": "string"
            },
            {
              "internalType": "string",
              "name": "model",
              "type": "string"
            },
            {
              "internalType": "uint256",
              "name": "year",
              "type": "uint256"
            },
            {
              "internalType": "string",
              "name": "condition",
              "type": "string"
            },
            {
              "internalType": "uint256",
              "name": "resaleValue",
              "type": "uint256"
            },
            {
              "internalType": "uint256",
              "name": "expirationDate",
              "type": "uint256"
            },
            {
              "internalType": "bool",
              "name": "sold",
              "type": "bool"
            }
          ],
          "internalType": "struct CarResaleValue.CarDetails[]",
          "name": "",
          "type": "tuple[]"
        }
      ],
      "stateMutability": "view",
      "type": "function"
    },
    {
      "inputs": [
        {
          "internalType": "uint256",
          "name": "tokenId",
          "type": "uint256"
        }
      ],
      "name": "isCarSold",
      "outputs": [
        {
          "internalType": "bool",
          "name": "",
          "type": "bool"
        }
      ],
      "stateMutability": "view",
      "type": "function"
    }
  ],
  "bytecode": "0x60806040523480156200001157600080fd5b506040518060400160405280600e81526020017f436172526573616c6556616c75650000000000000000000000000000000000008152506040518060400160405280600381526020017f435256000000000000000000000000000000000000000000000000000000000081525081600090816200008f919062000324565b508060019081620000a1919062000324565b5050506200040b565b600081519050919050565b7f4e487b7100000000000000000000000000000000000000000000000000000000600052604160045260246000fd5b7f4e487b7100000000000000000000000000000000000000000000000000000000600052602260045260246000fd5b600060028204905060018216806200012c57607f821691505b602082108103620001425762000141620000e4565b5b50919050565b60008190508160005260206000209050919050565b60006020601f8301049050919050565b600082821b905092915050565b600060088302620001ac7fffffffffffffffffffffffffffffffffffffffffffffffffffffffffffffffff826200016d565b620001b886836200016d565b95508019841693508086168417925050509392505050565b6000819050919050565b6000819050919050565b600062000205620001ff620001f984620001d0565b620001da565b620001d0565b9050919050565b6000819050919050565b6200022183620001e4565b6200023962000230826200020c565b8484546200017a565b825550505050565b600090565b6200025062000241565b6200025d81848462000216565b505050565b5b8181101562000285576200027960008262000246565b60018101905062000263565b5050565b601f821115620002d4576200029e8162000148565b620002a9846200015d565b81016020851015620002b9578190505b620002d1620002c8856200015d565b83018262000262565b50505b505050565b600082821c905092915050565b6000620002f960001984600802620002d9565b1980831691505092915050565b6000620003148383620002e6565b9150826002028217905092915050565b6200032f82620000aa565b67ffffffffffffffff8111156200034b576200034a620000b5565b5b62000357825462000113565b6200036482828562000289565b600060209050601f8311600181146200039c576000841562000387578287015190505b62000393858262000306565b86555062000403565b601f198416620003ac8662000148565b60005b82811015620003d657848901518255600182019150602085019450602081019050620003af565b86831015620003f65784890151620003f2601f891682620002e6565b8355505b6001600288020188555050505b505050505050565b614769806200041b6000396000f3fe6080604052600436106101355760003560e01c80636352211e116100ab578063a22cb4651161006f578063a22cb4651461044f578063b88d4fde14610478578063bbaf96f5146104a1578063c87b56dd146104de578063e985e9c51461051b578063f60518e01461055857610135565b80636352211e14610351578063662df7d81461038e57806370a08231146103aa578063810f13d8146103e757806395d89b411461042457610135565b806323b872dd116100fd57806323b872dd146102335780632ad9eb771461025c57806342842e0e14610299578063460727b1146102c2578063472ec454146102eb578063600980881461032857610135565b806301ffc9a71461013a57806306fdde0314610177578063081812fc146101a2578063095ea7b3146101df57806318160ddd14610208575b600080fd5b34801561014657600080fd5b50610161600480360381019061015c9190612c30565b610581565b60405161016e9190612c78565b60405180910390f35b34801561018357600080fd5b5061018c610663565b6040516101999190612d23565b60405180910390f35b3480156101ae57600080fd5b506101c960048036038101906101c49190612d7b565b6106f5565b6040516101d69190612de9565b60405180910390f35b3480156101eb57600080fd5b5061020660048036038101906102019190612e30565b61073b565b005b34801561021457600080fd5b5061021d610852565b60405161022a9190612e7f565b60405180910390f35b34801561023f57600080fd5b5061025a60048036038101906102559190612e9a565b610863565b005b34801561026857600080fd5b50610283600480360381019061027e9190612d7b565b6108c3565b6040516102909190612c78565b60405180910390f35b3480156102a557600080fd5b506102c060048036038101906102bb9190612e9a565b610921565b005b3480156102ce57600080fd5b506102e960048036038101906102e49190612eed565b610941565b005b3480156102f757600080fd5b50610312600480360381019061030d9190612d7b565b610aad565b60405161031f919061303f565b60405180910390f35b34801561033457600080fd5b5061034f600480360381019061034a9190612d7b565b610d11565b005b34801561035d57600080fd5b5061037860048036038101906103739190612d7b565b610ddb565b6040516103859190612de9565b60405180910390f35b6103a860048036038101906103a39190612d7b565b610e61565b005b3480156103b657600080fd5b506103d160048036038101906103cc9190613061565b6110d4565b6040516103de9190612e7f565b60405180910390f35b3480156103f357600080fd5b5061040e600480360381019061040991906131c3565b61118b565b60405161041b91906133ea565b60405180910390f35b34801561043057600080fd5b50610439611527565b6040516104469190612d23565b60405180910390f35b34801561045b57600080fd5b5061047660048036038101906104719190613438565b6115b9565b005b34801561048457600080fd5b5061049f600480360381019061049a9190613519565b6115cf565b005b3480156104ad57600080fd5b506104c860048036038101906104c3919061359c565b611631565b6040516104d59190612e7f565b60405180910390f35b3480156104ea57600080fd5b5061050560048036038101906105009190612d7b565b6118e9565b6040516105129190612d23565b60405180910390f35b34801561052757600080fd5b50610542600480360381019061053d919061367d565b611951565b60405161054f9190612c78565b60405180910390f35b34801561056457600080fd5b5061057f600480360381019061057a91906136bd565b6119e5565b005b60007f80ac58cd000000000000000000000000000000000000000000000000000000007bffffffffffffffffffffffffffffffffffffffffffffffffffffffff1916827bffffffffffffffffffffffffffffffffffffffffffffffffffffffff1916148061064c57507f5b5e139f000000000000000000000000000000000000000000000000000000007bffffffffffffffffffffffffffffffffffffffffffffffffffffffff1916827bffffffffffffffffffffffffffffffffffffffffffffffffffffffff1916145b8061065c575061065b82611cbe565b5b9050919050565b606060008054610672906137cd565b80601f016020809104026020016040519081016040528092919081815260200182805461069e906137cd565b80156106eb5780601f106106c0576101008083540402835291602001916106eb565b820191906000526020600020905b8154815290600101906020018083116106ce57829003601f168201915b5050505050905090565b600061070082611d28565b6004600083815260200190815260200160002060009054906101000a900473ffffffffffffffffffffffffffffffffffffffff169050919050565b600061074682610ddb565b90508073ffffffffffffffffffffffffffffffffffffffff168373ffffffffffffffffffffffffffffffffffffffff16036107b6576040517f08c379a00000000000000000000000000000000000000000000000000000000081526004016107ad90613870565b60405180910390fd5b8073ffffffffffffffffffffffffffffffffffffffff166107d5611d73565b73ffffffffffffffffffffffffffffffffffffffff1614806108045750610803816107fe611d73565b611951565b5b610843576040517f08c379a000000000000000000000000000000000000000000000000000000000815260040161083a90613902565b60405180910390fd5b61084d8383611d7b565b505050565b600061085e6006611e34565b905090565b61087461086e611d73565b82611e42565b6108b3576040517f08c379a00000000000000000000000000000000000000000000000000000000081526004016108aa90613994565b60405180910390fd5b6108be838383611ed7565b505050565b60006108ce826121d0565b61090d576040517f08c379a000000000000000000000000000000000000000000000000000000000815260040161090490613a00565b60405180910390fd5b61091682610aad565b60c001519050919050565b61093c838383604051806020016040528060008152506115cf565b505050565b61094a826121d0565b610989576040517f08c379a000000000000000000000000000000000000000000000000000000000815260040161098090613a00565b60405180910390fd5b3373ffffffffffffffffffffffffffffffffffffffff166109a983610ddb565b73ffffffffffffffffffffffffffffffffffffffff16146109ff576040517f08c379a00000000000000000000000000000000000000000000000000000000081526004016109f690613a92565b60405180910390fd5b6301e1338042610a0f9190613b10565b8111610a50576040517f08c379a0000000000000000000000000000000000000000000000000000000008152600401610a4790613bb3565b60405180910390fd5b6000600760008481526020019081526020016000209050818160050181905550827f5312f76aececf6be7fce67f013a75e9d4ba739ee57d7f2c25eb6b25bb6353f5883604051610aa09190612e7f565b60405180910390a2505050565b610ab5612b85565b610abe826121d0565b610afd576040517f08c379a0000000000000000000000000000000000000000000000000000000008152600401610af490613a00565b60405180910390fd5b600760008381526020019081526020016000206040518060e0016040529081600082018054610b2b906137cd565b80601f0160208091040260200160405190810160405280929190818152602001828054610b57906137cd565b8015610ba45780601f10610b7957610100808354040283529160200191610ba4565b820191906000526020600020905b815481529060010190602001808311610b8757829003601f168201915b50505050508152602001600182018054610bbd906137cd565b80601f0160208091040260200160405190810160405280929190818152602001828054610be9906137cd565b8015610c365780601f10610c0b57610100808354040283529160200191610c36565b820191906000526020600020905b815481529060010190602001808311610c1957829003601f168201915b5050505050815260200160028201548152602001600382018054610c59906137cd565b80601f0160208091040260200160405190810160405280929190818152602001828054610c85906137cd565b8015610cd25780601f10610ca757610100808354040283529160200191610cd2565b820191906000526020600020905b815481529060010190602001808311610cb557829003601f168201915b5050505050815260200160048201548152602001600582015481526020016006820160009054906101000a900460ff1615151515815250509050919050565b610d1a816121d0565b610d59576040517f08c379a0000000000000000000000000000000000000000000000000000000008152600401610d5090613a00565b60405180910390fd5b3373ffffffffffffffffffffffffffffffffffffffff16610d7982610ddb565b73ffffffffffffffffffffffffffffffffffffffff1614610dcf576040517f08c379a0000000000000000000000000000000000000000000000000000000008152600401610dc690613a92565b60405180910390fd5b610dd881612211565b50565b600080610de78361235f565b9050600073ffffffffffffffffffffffffffffffffffffffff168173ffffffffffffffffffffffffffffffffffffffff1603610e58576040517f08c379a0000000000000000000000000000000000000000000000000000000008152600401610e4f90613c1f565b60405180910390fd5b80915050919050565b610e6a816121d0565b610ea9576040517f08c379a0000000000000000000000000000000000000000000000000000000008152600401610ea090613a00565b60405180910390fd5b3373ffffffffffffffffffffffffffffffffffffffff16610ec982610ddb565b73ffffffffffffffffffffffffffffffffffffffff1603610f1f576040517f08c379a0000000000000000000000000000000000000000000000000000000008152600401610f1690613c8b565b60405180910390fd5b6007600082815260200190815260200160002060040154341015610f78576040517f08c379a0000000000000000000000000000000000000000000000000000000008152600401610f6f90613cf7565b60405180910390fd5b6007600082815260200190815260200160002060060160009054906101000a900460ff1615610fdc576040517f08c379a0000000000000000000000000000000000000000000000000000000008152600401610fd390613d63565b60405180910390fd5b6000610fe782610ddb565b90508073ffffffffffffffffffffffffffffffffffffffff166108fc349081150290604051600060405180830381858888f1935050505015801561102f573d6000803e3d6000fd5b5061103b813384611ed7565b60016007600084815260200190815260200160002060060160006101000a81548160ff0219169083151502179055503373ffffffffffffffffffffffffffffffffffffffff168173ffffffffffffffffffffffffffffffffffffffff16837f8205a71867f7292bcef9e53d4774758d6173b03f63017dec9a03a6664b429dc5346040516110c89190612e7f565b60405180910390a45050565b60008073ffffffffffffffffffffffffffffffffffffffff168273ffffffffffffffffffffffffffffffffffffffff1603611144576040517f08c379a000000000000000000000000000000000000000000000000000000000815260040161113b90613df5565b60405180910390fd5b600360008373ffffffffffffffffffffffffffffffffffffffff1673ffffffffffffffffffffffffffffffffffffffff168152602001908152602001600020549050919050565b60606000611197610852565b905060008167ffffffffffffffff8111156111b5576111b4613098565b5b6040519080825280602002602001820160405280156111ee57816020015b6111db612b85565b8152602001906001900390816111d35790505b5090506000600190505b8281116115195787805190602001206007600083815260200190815260200160002060000160405161122a9190613eb8565b6040518091039020148061126e57508680519060200120600760008381526020019081526020016000206001016040516112649190613eb8565b6040518091039020145b8061128e5750856007600083815260200190815260200160002060020154145b806112c957508480519060200120600760008381526020019081526020016000206003016040516112bf9190613eb8565b6040518091039020145b1561150657600760008281526020019081526020016000206040518060e00160405290816000820180546112fc906137cd565b80601f0160208091040260200160405190810160405280929190818152602001828054611328906137cd565b80156113755780601f1061134a57610100808354040283529160200191611375565b820191906000526020600020905b81548152906001019060200180831161135857829003601f168201915b5050505050815260200160018201805461138e906137cd565b80601f01602080910402602001604051908101604052809291908181526020018280546113ba906137cd565b80156114075780601f106113dc57610100808354040283529160200191611407565b820191906000526020600020905b8154815290600101906020018083116113ea57829003601f168201915b505050505081526020016002820154815260200160038201805461142a906137cd565b80601f0160208091040260200160405190810160405280929190818152602001828054611456906137cd565b80156114a35780601f10611478576101008083540402835291602001916114a3565b820191906000526020600020905b81548152906001019060200180831161148657829003601f168201915b5050505050815260200160048201548152602001600582015481526020016006820160009054906101000a900460ff161515151581525050826001836114e99190613ecf565b815181106114fa576114f9613f03565b5b60200260200101819052505b808061151190613f32565b9150506111f8565b508092505050949350505050565b606060018054611536906137cd565b80601f0160208091040260200160405190810160405280929190818152602001828054611562906137cd565b80156115af5780601f10611584576101008083540402835291602001916115af565b820191906000526020600020905b81548152906001019060200180831161159257829003601f168201915b5050505050905090565b6115cb6115c4611d73565b838361239c565b5050565b6115e06115da611d73565b83611e42565b61161f576040517f08c379a000000000000000000000000000000000000000000000000000000000815260040161161690613994565b60405180910390fd5b61162b84848484612508565b50505050565b60008260008111611677576040517f08c379a000000000000000000000000000000000000000000000000000000000815260040161166e90613fec565b60405180910390fd5b846040518060400160405280600981526020017f657863656c6c656e740000000000000000000000000000000000000000000000815250805190602001208180519060200120148061170b57506040518060400160405280600481526020017f676f6f6400000000000000000000000000000000000000000000000000000000815250805190602001208180519060200120145b8061175857506040518060400160405280600481526020017f6661697200000000000000000000000000000000000000000000000000000000815250805190602001208180519060200120145b806117a557506040518060400160405280600481526020017f706f6f7200000000000000000000000000000000000000000000000000000000815250805190602001208180519060200120145b6117e4576040517f08c379a00000000000000000000000000000000000000000000000000000000081526004016117db90614058565b60405180910390fd5b6117ee6006612564565b60006117fa6006611e34565b9050611806858261257a565b60006040518060e001604052808c81526020018b81526020018a8152602001898152602001888152602001600081526020016000151581525090508060076000848152602001908152602001600020600082015181600001908161186a9190614224565b5060208201518160010190816118809190614224565b506040820151816002015560608201518160030190816118a09190614224565b506080820151816004015560a0820151816005015560c08201518160060160006101000a81548160ff021916908315150217905550905050819450505050509695505050505050565b60606118f482611d28565b60006118fe612797565b9050600081511161191e5760405180602001604052806000815250611949565b80611928846127ae565b604051602001611939929190614332565b6040516020818303038152906040525b915050919050565b6000600560008473ffffffffffffffffffffffffffffffffffffffff1673ffffffffffffffffffffffffffffffffffffffff16815260200190815260200160002060008373ffffffffffffffffffffffffffffffffffffffff1673ffffffffffffffffffffffffffffffffffffffff16815260200190815260200160002060009054906101000a900460ff16905092915050565b816040518060400160405280600981526020017f657863656c6c656e7400000000000000000000000000000000000000000000008152508051906020012081805190602001201480611a7957506040518060400160405280600481526020017f676f6f6400000000000000000000000000000000000000000000000000000000815250805190602001208180519060200120145b80611ac657506040518060400160405280600481526020017f6661697200000000000000000000000000000000000000000000000000000000815250805190602001208180519060200120145b80611b1357506040518060400160405280600481526020017f706f6f7200000000000000000000000000000000000000000000000000000000815250805190602001208180519060200120145b611b52576040517f08c379a0000000000000000000000000000000000000000000000000000000008152600401611b4990614058565b60405180910390fd5b8160008111611b96576040517f08c379a0000000000000000000000000000000000000000000000000000000008152600401611b8d90613fec565b60405180910390fd5b611b9f886121d0565b611bde576040517f08c379a0000000000000000000000000000000000000000000000000000000008152600401611bd590613a00565b60405180910390fd5b3373ffffffffffffffffffffffffffffffffffffffff16611bfe89610ddb565b73ffffffffffffffffffffffffffffffffffffffff1614611c54576040517f08c379a0000000000000000000000000000000000000000000000000000000008152600401611c4b90613a92565b60405180910390fd5b6000600760008a8152602001908152602001600020905087816000019081611c7c9190614224565b5086816001019081611c8e9190614224565b5085816002018190555084816003019081611ca99190614224565b50838160040181905550505050505050505050565b60007f01ffc9a7000000000000000000000000000000000000000000000000000000007bffffffffffffffffffffffffffffffffffffffffffffffffffffffff1916827bffffffffffffffffffffffffffffffffffffffffffffffffffffffff1916149050919050565b611d31816121d0565b611d70576040517f08c379a0000000000000000000000000000000000000000000000000000000008152600401611d6790613c1f565b60405180910390fd5b50565b600033905090565b816004600083815260200190815260200160002060006101000a81548173ffffffffffffffffffffffffffffffffffffffff021916908373ffffffffffffffffffffffffffffffffffffffff160217905550808273ffffffffffffffffffffffffffffffffffffffff16611dee83610ddb565b73ffffffffffffffffffffffffffffffffffffffff167f8c5be1e5ebec7d5bd14f71427d1e84f3dd0314c0f7b2291e5b200ac8c7c3b92560405160405180910390a45050565b600081600001549050919050565b600080611e4e83610ddb565b90508073ffffffffffffffffffffffffffffffffffffffff168473ffffffffffffffffffffffffffffffffffffffff161480611e905750611e8f8185611951565b5b80611ece57508373ffffffffffffffffffffffffffffffffffffffff16611eb6846106f5565b73ffffffffffffffffffffffffffffffffffffffff16145b91505092915050565b8273ffffffffffffffffffffffffffffffffffffffff16611ef782610ddb565b73ffffffffffffffffffffffffffffffffffffffff1614611f4d576040517f08c379a0000000000000000000000000000000000000000000000000000000008152600401611f44906143c8565b60405180910390fd5b600073ffffffffffffffffffffffffffffffffffffffff168273ffffffffffffffffffffffffffffffffffffffff1603611fbc576040517f08c379a0000000000000000000000000000000000000000000000000000000008152600401611fb39061445a565b60405180910390fd5b611fc9838383600161287c565b8273ffffffffffffffffffffffffffffffffffffffff16611fe982610ddb565b73ffffffffffffffffffffffffffffffffffffffff161461203f576040517f08c379a0000000000000000000000000000000000000000000000000000000008152600401612036906143c8565b60405180910390fd5b6004600082815260200190815260200160002060006101000a81549073ffffffffffffffffffffffffffffffffffffffff02191690556001600360008573ffffffffffffffffffffffffffffffffffffffff1673ffffffffffffffffffffffffffffffffffffffff168152602001908152602001600020600082825403925050819055506001600360008473ffffffffffffffffffffffffffffffffffffffff1673ffffffffffffffffffffffffffffffffffffffff16815260200190815260200160002060008282540192505081905550816002600083815260200190815260200160002060006101000a81548173ffffffffffffffffffffffffffffffffffffffff021916908373ffffffffffffffffffffffffffffffffffffffff160217905550808273ffffffffffffffffffffffffffffffffffffffff168473ffffffffffffffffffffffffffffffffffffffff167fddf252ad1be2c89b69c2b068fc378daa952ba7f163c4a11628f55a4df523b3ef60405160405180910390a46121cb8383836001612882565b505050565b60008073ffffffffffffffffffffffffffffffffffffffff166121f28361235f565b73ffffffffffffffffffffffffffffffffffffffff1614159050919050565b600061221c82610ddb565b905061222c81600084600161287c565b61223582610ddb565b90506004600083815260200190815260200160002060006101000a81549073ffffffffffffffffffffffffffffffffffffffff02191690556001600360008373ffffffffffffffffffffffffffffffffffffffff1673ffffffffffffffffffffffffffffffffffffffff168152602001908152602001600020600082825403925050819055506002600083815260200190815260200160002060006101000a81549073ffffffffffffffffffffffffffffffffffffffff021916905581600073ffffffffffffffffffffffffffffffffffffffff168273ffffffffffffffffffffffffffffffffffffffff167fddf252ad1be2c89b69c2b068fc378daa952ba7f163c4a11628f55a4df523b3ef60405160405180910390a461235b816000846001612882565b5050565b60006002600083815260200190815260200160002060009054906101000a900473ffffffffffffffffffffffffffffffffffffffff169050919050565b8173ffffffffffffffffffffffffffffffffffffffff168373ffffffffffffffffffffffffffffffffffffffff160361240a576040517f08c379a0000000000000000000000000000000000000000000000000000000008152600401612401906144c6565b60405180910390fd5b80600560008573ffffffffffffffffffffffffffffffffffffffff1673ffffffffffffffffffffffffffffffffffffffff16815260200190815260200160002060008473ffffffffffffffffffffffffffffffffffffffff1673ffffffffffffffffffffffffffffffffffffffff16815260200190815260200160002060006101000a81548160ff0219169083151502179055508173ffffffffffffffffffffffffffffffffffffffff168373ffffffffffffffffffffffffffffffffffffffff167f17307eab39ab6107e8899845ad3d59bd9653f200f220920489ca2b5937696c31836040516124fb9190612c78565b60405180910390a3505050565b612513848484611ed7565b61251f84848484612888565b61255e576040517f08c379a000000000000000000000000000000000000000000000000000000000815260040161255590614558565b60405180910390fd5b50505050565b6001816000016000828254019250508190555050565b600073ffffffffffffffffffffffffffffffffffffffff168273ffffffffffffffffffffffffffffffffffffffff16036125e9576040517f08c379a00000000000000000000000000000000000000000000000000000000081526004016125e0906145c4565b60405180910390fd5b6125f2816121d0565b15612632576040517f08c379a000000000000000000000000000000000000000000000000000000000815260040161262990614630565b60405180910390fd5b61264060008383600161287c565b612649816121d0565b15612689576040517f08c379a000000000000000000000000000000000000000000000000000000000815260040161268090614630565b60405180910390fd5b6001600360008473ffffffffffffffffffffffffffffffffffffffff1673ffffffffffffffffffffffffffffffffffffffff16815260200190815260200160002060008282540192505081905550816002600083815260200190815260200160002060006101000a81548173ffffffffffffffffffffffffffffffffffffffff021916908373ffffffffffffffffffffffffffffffffffffffff160217905550808273ffffffffffffffffffffffffffffffffffffffff16600073ffffffffffffffffffffffffffffffffffffffff167fddf252ad1be2c89b69c2b068fc378daa952ba7f163c4a11628f55a4df523b3ef60405160405180910390a4612793600083836001612882565b5050565b606060405180602001604052806000815250905090565b6060600060016127bd84612a0f565b01905060008167ffffffffffffffff8111156127dc576127db613098565b5b6040519080825280601f01601f19166020018201604052801561280e5781602001600182028036833780820191505090505b509050600082602001820190505b600115612871578080600190039150507f3031323334353637383961626364656600000000000000000000000000000000600a86061a8153600a858161286557612864613ab2565b5b0494506000850361281c575b819350505050919050565b50505050565b50505050565b60006128a98473ffffffffffffffffffffffffffffffffffffffff16612b62565b15612a02578373ffffffffffffffffffffffffffffffffffffffff1663150b7a026128d2611d73565b8786866040518563ffffffff1660e01b81526004016128f494939291906146a5565b6020604051808303816000875af192505050801561293057506040513d601f19601f8201168201806040525081019061292d9190614706565b60015b6129b2573d8060008114612960576040519150601f19603f3d011682016040523d82523d6000602084013e612965565b606091505b5060008151036129aa576040517f08c379a00000000000000000000000000000000000000000000000000000000081526004016129a190614558565b60405180910390fd5b805181602001fd5b63150b7a0260e01b7bffffffffffffffffffffffffffffffffffffffffffffffffffffffff1916817bffffffffffffffffffffffffffffffffffffffffffffffffffffffff191614915050612a07565b600190505b949350505050565b600080600090507a184f03e93ff9f4daa797ed6e38ed64bf6a1f0100000000000000008310612a6d577a184f03e93ff9f4daa797ed6e38ed64bf6a1f0100000000000000008381612a6357612a62613ab2565b5b0492506040810190505b6d04ee2d6d415b85acef81000000008310612aaa576d04ee2d6d415b85acef81000000008381612aa057612a9f613ab2565b5b0492506020810190505b662386f26fc100008310612ad957662386f26fc100008381612acf57612ace613ab2565b5b0492506010810190505b6305f5e1008310612b02576305f5e1008381612af857612af7613ab2565b5b0492506008810190505b6127108310612b27576127108381612b1d57612b1c613ab2565b5b0492506004810190505b60648310612b4a5760648381612b4057612b3f613ab2565b5b0492506002810190505b600a8310612b59576001810190505b80915050919050565b6000808273ffffffffffffffffffffffffffffffffffffffff163b119050919050565b6040518060e001604052806060815260200160608152602001600081526020016060815260200160008152602001600081526020016000151581525090565b6000604051905090565b600080fd5b600080fd5b60007fffffffff0000000000000000000000000000000000000000000000000000000082169050919050565b612c0d81612bd8565b8114612c1857600080fd5b50565b600081359050612c2a81612c04565b92915050565b600060208284031215612c4657612c45612bce565b5b6000612c5484828501612c1b565b91505092915050565b60008115159050919050565b612c7281612c5d565b82525050565b6000602082019050612c8d6000830184612c69565b92915050565b600081519050919050565b600082825260208201905092915050565b60005b83811015612ccd578082015181840152602081019050612cb2565b60008484015250505050565b6000601f19601f8301169050919050565b6000612cf582612c93565b612cff8185612c9e565b9350612d0f818560208601612caf565b612d1881612cd9565b840191505092915050565b60006020820190508181036000830152612d3d8184612cea565b905092915050565b6000819050919050565b612d5881612d45565b8114612d6357600080fd5b50565b600081359050612d7581612d4f565b92915050565b600060208284031215612d9157612d90612bce565b5b6000612d9f84828501612d66565b91505092915050565b600073ffffffffffffffffffffffffffffffffffffffff82169050919050565b6000612dd382612da8565b9050919050565b612de381612dc8565b82525050565b6000602082019050612dfe6000830184612dda565b92915050565b612e0d81612dc8565b8114612e1857600080fd5b50565b600081359050612e2a81612e04565b92915050565b60008060408385031215612e4757612e46612bce565b5b6000612e5585828601612e1b565b9250506020612e6685828601612d66565b9150509250929050565b612e7981612d45565b82525050565b6000602082019050612e946000830184612e70565b92915050565b600080600060608486031215612eb357612eb2612bce565b5b6000612ec186828701612e1b565b9350506020612ed286828701612e1b565b9250506040612ee386828701612d66565b9150509250925092565b60008060408385031215612f0457612f03612bce565b5b6000612f1285828601612d66565b9250506020612f2385828601612d66565b9150509250929050565b600082825260208201905092915050565b6000612f4982612c93565b612f538185612f2d565b9350612f63818560208601612caf565b612f6c81612cd9565b840191505092915050565b612f8081612d45565b82525050565b612f8f81612c5d565b82525050565b600060e0830160008301518482036000860152612fb28282612f3e565b91505060208301518482036020860152612fcc8282612f3e565b9150506040830151612fe16040860182612f77565b5060608301518482036060860152612ff98282612f3e565b915050608083015161300e6080860182612f77565b5060a083015161302160a0860182612f77565b5060c083015161303460c0860182612f86565b508091505092915050565b600060208201905081810360008301526130598184612f95565b905092915050565b60006020828403121561307757613076612bce565b5b600061308584828501612e1b565b91505092915050565b600080fd5b600080fd5b7f4e487b7100000000000000000000000000000000000000000000000000000000600052604160045260246000fd5b6130d082612cd9565b810181811067ffffffffffffffff821117156130ef576130ee613098565b5b80604052505050565b6000613102612bc4565b905061310e82826130c7565b919050565b600067ffffffffffffffff82111561312e5761312d613098565b5b61313782612cd9565b9050602081019050919050565b82818337600083830152505050565b600061316661316184613113565b6130f8565b90508281526020810184848401111561318257613181613093565b5b61318d848285613144565b509392505050565b600082601f8301126131aa576131a961308e565b5b81356131ba848260208601613153565b91505092915050565b600080600080608085870312156131dd576131dc612bce565b5b600085013567ffffffffffffffff8111156131fb576131fa612bd3565b5b61320787828801613195565b945050602085013567ffffffffffffffff81111561322857613227612bd3565b5b61323487828801613195565b935050604061324587828801612d66565b925050606085013567ffffffffffffffff81111561326657613265612bd3565b5b61327287828801613195565b91505092959194509250565b600081519050919050565b600082825260208201905092915050565b6000819050602082019050919050565b600060e08301600083015184820360008601526132c78282612f3e565b915050602083015184820360208601526132e18282612f3e565b91505060408301516132f66040860182612f77565b506060830151848203606086015261330e8282612f3e565b91505060808301516133236080860182612f77565b5060a083015161333660a0860182612f77565b5060c083015161334960c0860182612f86565b508091505092915050565b600061336083836132aa565b905092915050565b6000602082019050919050565b60006133808261327e565b61338a8185613289565b93508360208202850161339c8561329a565b8060005b858110156133d857848403895281516133b98582613354565b94506133c483613368565b925060208a019950506001810190506133a0565b50829750879550505050505092915050565b600060208201905081810360008301526134048184613375565b905092915050565b61341581612c5d565b811461342057600080fd5b50565b6000813590506134328161340c565b92915050565b6000806040838503121561344f5761344e612bce565b5b600061345d85828601612e1b565b925050602061346e85828601613423565b9150509250929050565b600067ffffffffffffffff82111561349357613492613098565b5b61349c82612cd9565b9050602081019050919050565b60006134bc6134b784613478565b6130f8565b9050828152602081018484840111156134d8576134d7613093565b5b6134e3848285613144565b509392505050565b600082601f830112613500576134ff61308e565b5b81356135108482602086016134a9565b91505092915050565b6000806000806080858703121561353357613532612bce565b5b600061354187828801612e1b565b945050602061355287828801612e1b565b935050604061356387828801612d66565b925050606085013567ffffffffffffffff81111561358457613583612bd3565b5b613590878288016134eb565b91505092959194509250565b60008060008060008060c087890312156135b9576135b8612bce565b5b600087013567ffffffffffffffff8111156135d7576135d6612bd3565b5b6135e389828a01613195565b965050602087013567ffffffffffffffff81111561360457613603612bd3565b5b61361089828a01613195565b955050604061362189828a01612d66565b945050606087013567ffffffffffffffff81111561364257613641612bd3565b5b61364e89828a01613195565b935050608061365f89828a01612d66565b92505060a061367089828a01612e1b565b9150509295509295509295565b6000806040838503121561369457613693612bce565b5b60006136a285828601612e1b565b92505060206136b385828601612e1b565b9150509250929050565b60008060008060008060c087890312156136da576136d9612bce565b5b60006136e889828a01612d66565b965050602087013567ffffffffffffffff81111561370957613708612bd3565b5b61371589828a01613195565b955050604087013567ffffffffffffffff81111561373657613735612bd3565b5b61374289828a01613195565b945050606061375389828a01612d66565b935050608087013567ffffffffffffffff81111561377457613773612bd3565b5b61378089828a01613195565b92505060a061379189828a01612d66565b9150509295509295509295565b7f4e487b7100000000000000000000000000000000000000000000000000000000600052602260045260246000fd5b600060028204905060018216806137e557607f821691505b6020821081036137f8576137f761379e565b5b50919050565b7f4552433732313a20617070726f76616c20746f2063757272656e74206f776e6560008201527f7200000000000000000000000000000000000000000000000000000000000000602082015250565b600061385a602183612c9e565b9150613865826137fe565b604082019050919050565b600060208201905081810360008301526138898161384d565b9050919050565b7f4552433732313a20617070726f76652063616c6c6572206973206e6f7420746f60008201527f6b656e206f776e6572206f7220617070726f76656420666f7220616c6c000000602082015250565b60006138ec603d83612c9e565b91506138f782613890565b604082019050919050565b6000602082019050818103600083015261391b816138df565b9050919050565b7f4552433732313a2063616c6c6572206973206e6f7420746f6b656e206f776e6560008201527f72206f7220617070726f76656400000000000000000000000000000000000000602082015250565b600061397e602d83612c9e565b915061398982613922565b604082019050919050565b600060208201905081810360008301526139ad81613971565b9050919050565b7f546f6b656e20646f6573206e6f74206578697374000000000000000000000000600082015250565b60006139ea601483612c9e565b91506139f5826139b4565b602082019050919050565b60006020820190508181036000830152613a19816139dd565b9050919050565b7f4f6e6c7920746865206f776e65722063616e2063616c6c20746869732066756e60008201527f6374696f6e000000000000000000000000000000000000000000000000000000602082015250565b6000613a7c602583612c9e565b9150613a8782613a20565b604082019050919050565b60006020820190508181036000830152613aab81613a6f565b9050919050565b7f4e487b7100000000000000000000000000000000000000000000000000000000600052601260045260246000fd5b7f4e487b7100000000000000000000000000000000000000000000000000000000600052601160045260246000fd5b6000613b1b82612d45565b9150613b2683612d45565b925082613b3657613b35613ab2565b5b828204905092915050565b7f45787069726174696f6e2064617465206d75737420626520696e20746865206660008201527f7574757265000000000000000000000000000000000000000000000000000000602082015250565b6000613b9d602583612c9e565b9150613ba882613b41565b604082019050919050565b60006020820190508181036000830152613bcc81613b90565b9050919050565b7f4552433732313a20696e76616c696420746f6b656e2049440000000000000000600082015250565b6000613c09601883612c9e565b9150613c1482613bd3565b602082019050919050565b60006020820190508181036000830152613c3881613bfc565b9050919050565b7f596f7520616c7265616479206f776e207468697320746f6b656e000000000000600082015250565b6000613c75601a83612c9e565b9150613c8082613c3f565b602082019050919050565b60006020820190508181036000830152613ca481613c68565b9050919050565b7f496e73756666696369656e742066756e64730000000000000000000000000000600082015250565b6000613ce1601283612c9e565b9150613cec82613cab565b602082019050919050565b60006020820190508181036000830152613d1081613cd4565b9050919050565b7f43617220616c726561647920736f6c6400000000000000000000000000000000600082015250565b6000613d4d601083612c9e565b9150613d5882613d17565b602082019050919050565b60006020820190508181036000830152613d7c81613d40565b9050919050565b7f4552433732313a2061646472657373207a65726f206973206e6f74206120766160008201527f6c6964206f776e65720000000000000000000000000000000000000000000000602082015250565b6000613ddf602983612c9e565b9150613dea82613d83565b604082019050919050565b60006020820190508181036000830152613e0e81613dd2565b9050919050565b600081905092915050565b60008190508160005260206000209050919050565b60008154613e42816137cd565b613e4c8186613e15565b94506001821660008114613e675760018114613e7c57613eaf565b60ff1983168652811515820286019350613eaf565b613e8585613e20565b60005b83811015613ea757815481890152600182019150602081019050613e88565b838801955050505b50505092915050565b6000613ec48284613e35565b915081905092915050565b6000613eda82612d45565b9150613ee583612d45565b9250828203905081811115613efd57613efc613ae1565b5b92915050565b7f4e487b7100000000000000000000000000000000000000000000000000000000600052603260045260246000fd5b6000613f3d82612d45565b91507fffffffffffffffffffffffffffffffffffffffffffffffffffffffffffffffff8203613f6f57613f6e613ae1565b5b600182019050919050565b7f526573616c652076616c7565206d75737420626520677265617465722074686160008201527f6e207a65726f0000000000000000000000000000000000000000000000000000602082015250565b6000613fd6602683612c9e565b9150613fe182613f7a565b604082019050919050565b6000602082019050818103600083015261400581613fc9565b9050919050565b7f496e76616c696420636f6e646974696f6e000000000000000000000000000000600082015250565b6000614042601183612c9e565b915061404d8261400c565b602082019050919050565b6000602082019050818103600083015261407181614035565b9050919050565b60008190508160005260206000209050919050565b60006020601f8301049050919050565b600082821b905092915050565b6000600883026140da7fffffffffffffffffffffffffffffffffffffffffffffffffffffffffffffffff8261409d565b6140e4868361409d565b95508019841693508086168417925050509392505050565b6000819050919050565b600061412161411c61411784612d45565b6140fc565b612d45565b9050919050565b6000819050919050565b61413b83614106565b61414f61414782614128565b8484546140aa565b825550505050565b600090565b614164614157565b61416f818484614132565b505050565b5b818110156141935761418860008261415c565b600181019050614175565b5050565b601f8211156141d8576141a981614078565b6141b28461408d565b810160208510156141c1578190505b6141d56141cd8561408d565b830182614174565b50505b505050565b600082821c905092915050565b60006141fb600019846008026141dd565b1980831691505092915050565b600061421483836141ea565b9150826002028217905092915050565b61422d82612c93565b67ffffffffffffffff81111561424657614245613098565b5b61425082546137cd565b61425b828285614197565b600060209050601f83116001811461428e576000841561427c578287015190505b6142868582614208565b8655506142ee565b601f19841661429c86614078565b60005b828110156142c45784890151825560018201915060208501945060208101905061429f565b868310156142e157848901516142dd601f8916826141ea565b8355505b6001600288020188555050505b505050505050565b600081905092915050565b600061430c82612c93565b61431681856142f6565b9350614326818560208601612caf565b80840191505092915050565b600061433e8285614301565b915061434a8284614301565b91508190509392505050565b7f4552433732313a207472616e736665722066726f6d20696e636f72726563742060008201527f6f776e6572000000000000000000000000000000000000000000000000000000602082015250565b60006143b2602583612c9e565b91506143bd82614356565b604082019050919050565b600060208201905081810360008301526143e1816143a5565b9050919050565b7f4552433732313a207472616e7366657220746f20746865207a65726f2061646460008201527f7265737300000000000000000000000000000000000000000000000000000000602082015250565b6000614444602483612c9e565b915061444f826143e8565b604082019050919050565b6000602082019050818103600083015261447381614437565b9050919050565b7f4552433732313a20617070726f766520746f2063616c6c657200000000000000600082015250565b60006144b0601983612c9e565b91506144bb8261447a565b602082019050919050565b600060208201905081810360008301526144df816144a3565b9050919050565b7f4552433732313a207472616e7366657220746f206e6f6e20455243373231526560008201527f63656976657220696d706c656d656e7465720000000000000000000000000000602082015250565b6000614542603283612c9e565b915061454d826144e6565b604082019050919050565b6000602082019050818103600083015261457181614535565b9050919050565b7f4552433732313a206d696e7420746f20746865207a65726f2061646472657373600082015250565b60006145ae602083612c9e565b91506145b982614578565b602082019050919050565b600060208201905081810360008301526145dd816145a1565b9050919050565b7f4552433732313a20746f6b656e20616c7265616479206d696e74656400000000600082015250565b600061461a601c83612c9e565b9150614625826145e4565b602082019050919050565b600060208201905081810360008301526146498161460d565b9050919050565b600081519050919050565b600082825260208201905092915050565b600061467782614650565b614681818561465b565b9350614691818560208601612caf565b61469a81612cd9565b840191505092915050565b60006080820190506146ba6000830187612dda565b6146c76020830186612dda565b6146d46040830185612e70565b81810360608301526146e6818461466c565b905095945050505050565b60008151905061470081612c04565b92915050565b60006020828403121561471c5761471b612bce565b5b600061472a848285016146f1565b9150509291505056fea2646970667358221220a630a320ec8f3edc90e78a772f6e3f520850ab828add990cb4ed5739d65ab80364736f6c63430008130033",
  "immutableReferences": {},
  "source": "// SPDX-License-Identifier: MIT\npragma solidity ^0.8.0;\n\nimport \"@openzeppelin/contracts/token/ERC721/ERC721.sol\";\nimport \"@openzeppelin/contracts/utils/Counters.sol\";\n\ncontract CarResaleValue is ERC721 {\n    using Counters for Counters.Counter;\n    Counters.Counter private _tokenIds;\n    event ExpirationDateSet(uint256 indexed tokenId, uint256 expirationDate);    \n    event CarSold(uint256 indexed tokenId, address indexed seller, address indexed buyer, uint256 salePrice);\n\n    struct CarDetails {\n        string make;\n        string model;\n        uint256 year;\n        string condition;\n        uint256 resaleValue;\n        uint256 expirationDate;\n        bool sold;\n    }\n\n    mapping(uint256 => CarDetails) private _carDetails;\n\n    constructor() ERC721(\"CarResaleValue\", \"CRV\") {}\n\n    modifier priceIfNotZero(uint256 resaleValue) {\n        require(resaleValue > 0, \"Resale value must be greater than zero\");\n        _;\n    }\n\n    modifier validcondition(string memory condition) {\n        require(\n            keccak256(bytes(condition)) == keccak256(bytes(\"excellent\")) ||\n                keccak256(bytes(condition)) == keccak256(bytes(\"good\")) ||\n                keccak256(bytes(condition)) == keccak256(bytes(\"fair\")) ||\n                keccak256(bytes(condition)) == keccak256(bytes(\"poor\")),\n            \"Invalid condition\"\n        );\n        _;\n    }\n\n    function createCarResaleValue(\n        string memory make,\n        string memory model,\n        uint256 year,\n        string memory condition,\n        uint256 resaleValue,\n        address owner\n    ) public priceIfNotZero(resaleValue) validcondition(condition) returns (uint256) {\n        _tokenIds.increment();\n\n        uint256 tokenId = _tokenIds.current();\n        _mint(owner, tokenId);\n        CarDetails memory details = CarDetails({\n            make: make,\n            model: model,\n            year: year,\n            condition: condition,\n            resaleValue: resaleValue,\n            expirationDate: 0,\n            sold:false\n        });\n\n        _carDetails[tokenId] = details;\n\n        return tokenId;\n    }\n\n    function getCarDetails(uint256 tokenId) public view returns (CarDetails memory) {\n        require(_exists(tokenId), \"Token does not exist\");\n\n        return _carDetails[tokenId];\n    }\n\n    function purchaseCarResaleValue(uint256 tokenId) public payable {\n        require(_exists(tokenId), \"Token does not exist\");\n        require(ownerOf(tokenId) != msg.sender, \"You already own this token\");\n        require(msg.value >= _carDetails[tokenId].resaleValue, \"Insufficient funds\");\n        require(!_carDetails[tokenId].sold, \"Car already sold\");\n        address payable owner = payable(ownerOf(tokenId));\n        owner.transfer(msg.value);\n        _transfer(owner, msg.sender, tokenId);\n        _carDetails[tokenId].sold = true;\n\n        emit CarSold(tokenId, owner, msg.sender, msg.value);\n    }\n\n\n    function editCarDetails(uint256 tokenId, string memory make, string memory model, uint256 year, string memory condition, uint256 resaleValue) public validcondition(condition) priceIfNotZero(resaleValue) {\n        require(_exists(tokenId), \"Token does not exist\");\n        require(ownerOf(tokenId) == msg.sender, \"Only the owner can call this function\");\n        CarDetails storage details = _carDetails[tokenId];\n        details.make = make;\n        details.model = model;\n        details.year = year;\n        details.condition = condition;\n        details.resaleValue = resaleValue;\n    }\n    function setExpirationDate(uint256 tokenId, uint256 expirationDate) public {\n        require(_exists(tokenId), \"Token does not exist\");\n        require(ownerOf(tokenId) == msg.sender, \"Only the owner can call this function\");\n        require(expirationDate > block.timestamp/31536000, \"Expiration date must be in the future\");\n\n        CarDetails storage details = _carDetails[tokenId];\n        details.expirationDate = expirationDate;\n\n        emit ExpirationDateSet(tokenId, expirationDate);\n    }\n\n    function deleteCar(uint256 tokenId) public {\n        require(_exists(tokenId), \"Token does not exist\");\n        require(ownerOf(tokenId) == msg.sender, \"Only the owner can call this function\");\n\n    \n        _burn(tokenId);\n    }\n    function totalSupply() public view returns (uint256) {\n        return _tokenIds.current();\n    }\n\n\n    \n    function searchCar(string memory make, string memory model, uint256 year, string memory condition) public view returns (CarDetails[] memory) {\n        uint256 totalCars = totalSupply();\n        CarDetails[] memory cars = new CarDetails[](totalCars);\n\n        for (uint256 i = 1; i <= totalCars; i++) {\n            if (keccak256(bytes(_carDetails[i].make)) == keccak256(bytes(make)) ||\n                keccak256(bytes(_carDetails[i].model)) == keccak256(bytes(model)) ||\n                _carDetails[i].year == year ||\n                keccak256(bytes(_carDetails[i].condition)) == keccak256(bytes(condition))) {\n                cars[i-1] = _carDetails[i];\n            }\n        }\n\n        return cars;\n    }\n\n    function isCarSold(uint256 tokenId) public view returns (bool) {\n        require(_exists(tokenId), \"Token does not exist\");\n\n        return getCarDetails(tokenId).sold;\n    }\n\n    \n}\n",
  "sourcePath": "C:\\Users\\DELL\\OneDrive\\Desktop\\blockchain\\CarResaleProject\\CarReSaleValue-contract\\contracts\\CarResaleValue.sol",
  "compiler": {
    "name": "solc",
    "version": "0.8.19+commit.7dd6d404.Emscripten.clang"
  },
  "schemaVersion": "3.4.13",
  "updatedAt": "2023-04-29T23:45:08.301Z",
  "devdoc": {
    "events": {
      "Approval(address,address,uint256)": {
        "details": "Emitted when `owner` enables `approved` to manage the `tokenId` token."
      },
      "ApprovalForAll(address,address,bool)": {
        "details": "Emitted when `owner` enables or disables (`approved`) `operator` to manage all of its assets."
      },
      "Transfer(address,address,uint256)": {
        "details": "Emitted when `tokenId` token is transferred from `from` to `to`."
      }
    },
    "kind": "dev",
    "methods": {
      "approve(address,uint256)": {
        "details": "See {IERC721-approve}."
      },
      "balanceOf(address)": {
        "details": "See {IERC721-balanceOf}."
      },
      "getApproved(uint256)": {
        "details": "See {IERC721-getApproved}."
      },
      "isApprovedForAll(address,address)": {
        "details": "See {IERC721-isApprovedForAll}."
      },
      "name()": {
        "details": "See {IERC721Metadata-name}."
      },
      "ownerOf(uint256)": {
        "details": "See {IERC721-ownerOf}."
      },
      "safeTransferFrom(address,address,uint256)": {
        "details": "See {IERC721-safeTransferFrom}."
      },
      "safeTransferFrom(address,address,uint256,bytes)": {
        "details": "See {IERC721-safeTransferFrom}."
      },
      "setApprovalForAll(address,bool)": {
        "details": "See {IERC721-setApprovalForAll}."
      },
      "supportsInterface(bytes4)": {
        "details": "See {IERC165-supportsInterface}."
      },
      "symbol()": {
        "details": "See {IERC721Metadata-symbol}."
      },
      "tokenURI(uint256)": {
        "details": "See {IERC721Metadata-tokenURI}."
      },
      "transferFrom(address,address,uint256)": {
        "details": "See {IERC721-transferFrom}."
      }
    },
    "version": 1
  },
  "userdoc": {
    "kind": "user",
    "methods": {},
    "version": 1
  }
}